{"abi":[{"inputs":[{"internalType":"string","name":"_name","type":"string"},{"internalType":"uint256","name":"_amount","type":"uint256"},{"internalType":"address","name":"_wallet","type":"address"}],"name":"addAccount","outputs":[],"stateMutability":"nonpayable","type":"function"},{"inputs":[{"internalType":"uint256","name":"","type":"uint256"}],"name":"asset","outputs":[{"internalType":"string","name":"name","type":"string"},{"internalType":"uint256","name":"amount","type":"uint256"},{"internalType":"address","name":"wallet","type":"address"}],"stateMutability":"view","type":"function"},{"inputs":[],"name":"myaccount","outputs":[{"internalType":"string","name":"name","type":"string"},{"internalType":"uint256","name":"amount","type":"uint256"},{"internalType":"address","name":"wallet","type":"address"}],"stateMutability":"view","type":"function"},{"inputs":[{"internalType":"string","name":"","type":"string"}],"name":"name2amount","outputs":[{"internalType":"uint256","name":"","type":"uint256"}],"stateMutability":"view","type":"function"},{"inputs":[],"name":"retrieveStorage","outputs":[{"internalType":"uint256","name":"","type":"uint256"}],"stateMutability":"view","type":"function"},{"inputs":[],"name":"storedData","outputs":[{"internalType":"uint256","name":"","type":"uint256"}],"stateMutability":"view","type":"function"},{"inputs":[{"internalType":"uint256","name":"_storedData","type":"uint256"}],"name":"updateStorage","outputs":[],"stateMutability":"nonpayable","type":"function"}],"bytecode":"6104006000556103ff1960019081556002805460ff1916909117905560c0604052600d60808190526c2432b6363796103bb7b936321760991b60a090815261004a9160039190610107565b50600480546001600160a01b031916735b38da6a701c568545dcfcb03fcb875f56beddc4908117909155620cae8d60eb1b6005556040805160a08101825260076060820181815266766974616c696b60c81b60808401908152908352606460208401529282019390935291906100c290829081610107565b5060208201516001820155604090910151600290910180546001600160a01b0319166001600160a01b0390921691909117905534801561010157600080fd5b506101da565b828054610113906101a0565b90600052602060002090601f016020900481019282610135576000855561017b565b82601f1061014e57805160ff191683800117855561017b565b8280016001018555821561017b579182015b8281111561017b578251825591602001919060010190610160565b5061018792915061018b565b5090565b5b80821115610187576000815560010161018c565b600181811c908216806101b457607f821691505b6020821081036101d457634e487b7160e01b600052602260045260246000fd5b50919050565b6105c8806101e96000396000f3fe608060405234801561001057600080fd5b506004361061007d5760003560e01c80638f706f8e1161005b5780638f706f8e146100d557806391a8d97f146100dd57806394f71220146100f0578063c1046757146100f857600080fd5b806307ce96f4146100825780632a1afcd9146100975780638ea06f81146100b3575b600080fd5b610095610090366004610361565b600655565b005b6100a060065481565b6040519081526020015b60405180910390f35b6100c66100c1366004610361565b610123565b6040516100aa939291906103aa565b6006546100a0565b6100956100eb366004610498565b6101ef565b6100c66102b9565b6100a06101063660046104ff565b8051602081830181018051600b8252928201919093012091525481565b600a818154811061013357600080fd5b90600052602060002090600302016000915090508060000180546101569061053c565b80601f01602080910402602001604051908101604052809291908181526020018280546101829061053c565b80156101cf5780601f106101a4576101008083540402835291602001916101cf565b820191906000526020600020905b8154815290600101906020018083116101b257829003601f168201915b5050505060018301546002909301549192916001600160a01b0316905083565b6040805160608101825284815260208082018590526001600160a01b03841692820192909252600a805460018101825560009190915281518051929360039092027fc65a7bb8d6351c1cf70c95a316cc6a92839c986682d98bc35f958f4883f9d2a8019261026092849201906102c8565b5060208201516001820155604091820151600290910180546001600160a01b0319166001600160a01b03909216919091179055518290600b906102a4908690610576565b90815260405190819003602001902055505050565b6007805481906101569061053c565b8280546102d49061053c565b90600052602060002090601f0160209004810192826102f6576000855561033c565b82601f1061030f57805160ff191683800117855561033c565b8280016001018555821561033c579182015b8281111561033c578251825591602001919060010190610321565b5061034892915061034c565b5090565b5b80821115610348576000815560010161034d565b60006020828403121561037357600080fd5b5035919050565b60005b8381101561039557818101518382015260200161037d565b838111156103a4576000848401525b50505050565b60608152600084518060608401526103c981608085016020890161037a565b6020830194909452506001600160a01b039190911660408201526080601f909201601f19160101919050565b634e487b7160e01b600052604160045260246000fd5b600082601f83011261041c57600080fd5b813567ffffffffffffffff80821115610437576104376103f5565b604051601f8301601f19908116603f0116810190828211818310171561045f5761045f6103f5565b8160405283815286602085880101111561047857600080fd5b836020870160208301376000602085830101528094505050505092915050565b6000806000606084860312156104ad57600080fd5b833567ffffffffffffffff8111156104c457600080fd5b6104d08682870161040b565b9350506020840135915060408401356001600160a01b03811681146104f457600080fd5b809150509250925092565b60006020828403121561051157600080fd5b813567ffffffffffffffff81111561052857600080fd5b6105348482850161040b565b949350505050565b600181811c9082168061055057607f821691505b60208210810361057057634e487b7160e01b600052602260045260246000fd5b50919050565b6000825161058881846020870161037a565b919091019291505056fea2646970667358221220020f31420c38399f0ace5ddb18ff374161f5071896b8c4af7ed504ab6bba423664736f6c634300080d0033","bytecodeSha1":"28b2a885d99a408205664303918a79ce9f18ebc7","compiler":{"evm_version":"istanbul","optimizer":{"enabled":true,"runs":200},"version":"0.8.13+commit.abaa5c0e"},"contractName":"SimpleStorage","language":"Solidity","natspec":{"kind":"dev","methods":{},"version":1},"opcodes":"PUSH1 0x80 PUSH1 0x40 MSTORE CALLVALUE DUP1 ISZERO PUSH2 0x10 JUMPI PUSH1 0x0 DUP1 REVERT JUMPDEST POP PUSH1 0x4 CALLDATASIZE LT PUSH2 0x7D JUMPI PUSH1 0x0 CALLDATALOAD PUSH1 0xE0 SHR DUP1 PUSH4 0x8F706F8E GT PUSH2 0x5B JUMPI DUP1 PUSH4 0x8F706F8E EQ PUSH2 0xD5 JUMPI DUP1 PUSH4 0x91A8D97F EQ PUSH2 0xDD JUMPI DUP1 PUSH4 0x94F71220 EQ PUSH2 0xF0 JUMPI DUP1 PUSH4 0xC1046757 EQ PUSH2 0xF8 JUMPI PUSH1 0x0 DUP1 REVERT JUMPDEST DUP1 PUSH4 0x7CE96F4 EQ PUSH2 0x82 JUMPI DUP1 PUSH4 0x2A1AFCD9 EQ PUSH2 0x97 JUMPI DUP1 PUSH4 0x8EA06F81 EQ PUSH2 0xB3 JUMPI JUMPDEST PUSH1 0x0 DUP1 REVERT JUMPDEST PUSH2 0x95 PUSH2 0x90 CALLDATASIZE PUSH1 0x4 PUSH2 0x361 JUMP JUMPDEST PUSH1 0x6 SSTORE JUMP JUMPDEST STOP JUMPDEST PUSH2 0xA0 PUSH1 0x6 SLOAD DUP2 JUMP JUMPDEST PUSH1 0x40 MLOAD SWAP1 DUP2 MSTORE PUSH1 0x20 ADD JUMPDEST PUSH1 0x40 MLOAD DUP1 SWAP2 SUB SWAP1 RETURN JUMPDEST PUSH2 0xC6 PUSH2 0xC1 CALLDATASIZE PUSH1 0x4 PUSH2 0x361 JUMP JUMPDEST PUSH2 0x123 JUMP JUMPDEST PUSH1 0x40 MLOAD PUSH2 0xAA SWAP4 SWAP3 SWAP2 SWAP1 PUSH2 0x3AA JUMP JUMPDEST PUSH1 0x6 SLOAD PUSH2 0xA0 JUMP JUMPDEST PUSH2 0x95 PUSH2 0xEB CALLDATASIZE PUSH1 0x4 PUSH2 0x498 JUMP JUMPDEST PUSH2 0x1EF JUMP JUMPDEST PUSH2 0xC6 PUSH2 0x2B9 JUMP JUMPDEST PUSH2 0xA0 PUSH2 0x106 CALLDATASIZE PUSH1 0x4 PUSH2 0x4FF JUMP JUMPDEST DUP1 MLOAD PUSH1 0x20 DUP2 DUP4 ADD DUP2 ADD DUP1 MLOAD PUSH1 0xB DUP3 MSTORE SWAP3 DUP3 ADD SWAP2 SWAP1 SWAP4 ADD KECCAK256 SWAP2 MSTORE SLOAD DUP2 JUMP JUMPDEST PUSH1 0xA DUP2 DUP2 SLOAD DUP2 LT PUSH2 0x133 JUMPI PUSH1 0x0 DUP1 REVERT JUMPDEST SWAP1 PUSH1 0x0 MSTORE PUSH1 0x20 PUSH1 0x0 KECCAK256 SWAP1 PUSH1 0x3 MUL ADD PUSH1 0x0 SWAP2 POP SWAP1 POP DUP1 PUSH1 0x0 ADD DUP1 SLOAD PUSH2 0x156 SWAP1 PUSH2 0x53C JUMP JUMPDEST DUP1 PUSH1 0x1F ADD PUSH1 0x20 DUP1 SWAP2 DIV MUL PUSH1 0x20 ADD PUSH1 0x40 MLOAD SWAP1 DUP2 ADD PUSH1 0x40 MSTORE DUP1 SWAP3 SWAP2 SWAP1 DUP2 DUP2 MSTORE PUSH1 0x20 ADD DUP3 DUP1 SLOAD PUSH2 0x182 SWAP1 PUSH2 0x53C JUMP JUMPDEST DUP1 ISZERO PUSH2 0x1CF JUMPI DUP1 PUSH1 0x1F LT PUSH2 0x1A4 JUMPI PUSH2 0x100 DUP1 DUP4 SLOAD DIV MUL DUP4 MSTORE SWAP2 PUSH1 0x20 ADD SWAP2 PUSH2 0x1CF JUMP JUMPDEST DUP3 ADD SWAP2 SWAP1 PUSH1 0x0 MSTORE PUSH1 0x20 PUSH1 0x0 KECCAK256 SWAP1 JUMPDEST DUP2 SLOAD DUP2 MSTORE SWAP1 PUSH1 0x1 ADD SWAP1 PUSH1 0x20 ADD DUP1 DUP4 GT PUSH2 0x1B2 JUMPI DUP3 SWAP1 SUB PUSH1 0x1F AND DUP3 ADD SWAP2 JUMPDEST POP POP POP POP PUSH1 0x1 DUP4 ADD SLOAD PUSH1 0x2 SWAP1 SWAP4 ADD SLOAD SWAP2 SWAP3 SWAP2 PUSH1 0x1 PUSH1 0x1 PUSH1 0xA0 SHL SUB AND SWAP1 POP DUP4 JUMP JUMPDEST PUSH1 0x40 DUP1 MLOAD PUSH1 0x60 DUP2 ADD DUP3 MSTORE DUP5 DUP2 MSTORE PUSH1 0x20 DUP1 DUP3 ADD DUP6 SWAP1 MSTORE PUSH1 0x1 PUSH1 0x1 PUSH1 0xA0 SHL SUB DUP5 AND SWAP3 DUP3 ADD SWAP3 SWAP1 SWAP3 MSTORE PUSH1 0xA DUP1 SLOAD PUSH1 0x1 DUP2 ADD DUP3 SSTORE PUSH1 0x0 SWAP2 SWAP1 SWAP2 MSTORE DUP2 MLOAD DUP1 MLOAD SWAP3 SWAP4 PUSH1 0x3 SWAP1 SWAP3 MUL PUSH32 0xC65A7BB8D6351C1CF70C95A316CC6A92839C986682D98BC35F958F4883F9D2A8 ADD SWAP3 PUSH2 0x260 SWAP3 DUP5 SWAP3 ADD SWAP1 PUSH2 0x2C8 JUMP JUMPDEST POP PUSH1 0x20 DUP3 ADD MLOAD PUSH1 0x1 DUP3 ADD SSTORE PUSH1 0x40 SWAP2 DUP3 ADD MLOAD PUSH1 0x2 SWAP1 SWAP2 ADD DUP1 SLOAD PUSH1 0x1 PUSH1 0x1 PUSH1 0xA0 SHL SUB NOT AND PUSH1 0x1 PUSH1 0x1 PUSH1 0xA0 SHL SUB SWAP1 SWAP3 AND SWAP2 SWAP1 SWAP2 OR SWAP1 SSTORE MLOAD DUP3 SWAP1 PUSH1 0xB SWAP1 PUSH2 0x2A4 SWAP1 DUP7 SWAP1 PUSH2 0x576 JUMP JUMPDEST SWAP1 DUP2 MSTORE PUSH1 0x40 MLOAD SWAP1 DUP2 SWAP1 SUB PUSH1 0x20 ADD SWAP1 KECCAK256 SSTORE POP POP POP JUMP JUMPDEST PUSH1 0x7 DUP1 SLOAD DUP2 SWAP1 PUSH2 0x156 SWAP1 PUSH2 0x53C JUMP JUMPDEST DUP3 DUP1 SLOAD PUSH2 0x2D4 SWAP1 PUSH2 0x53C JUMP JUMPDEST SWAP1 PUSH1 0x0 MSTORE PUSH1 0x20 PUSH1 0x0 KECCAK256 SWAP1 PUSH1 0x1F ADD PUSH1 0x20 SWAP1 DIV DUP2 ADD SWAP3 DUP3 PUSH2 0x2F6 JUMPI PUSH1 0x0 DUP6 SSTORE PUSH2 0x33C JUMP JUMPDEST DUP3 PUSH1 0x1F LT PUSH2 0x30F JUMPI DUP1 MLOAD PUSH1 0xFF NOT AND DUP4 DUP1 ADD OR DUP6 SSTORE PUSH2 0x33C JUMP JUMPDEST DUP3 DUP1 ADD PUSH1 0x1 ADD DUP6 SSTORE DUP3 ISZERO PUSH2 0x33C JUMPI SWAP2 DUP3 ADD JUMPDEST DUP3 DUP2 GT ISZERO PUSH2 0x33C JUMPI DUP3 MLOAD DUP3 SSTORE SWAP2 PUSH1 0x20 ADD SWAP2 SWAP1 PUSH1 0x1 ADD SWAP1 PUSH2 0x321 JUMP JUMPDEST POP PUSH2 0x348 SWAP3 SWAP2 POP PUSH2 0x34C JUMP JUMPDEST POP SWAP1 JUMP JUMPDEST JUMPDEST DUP1 DUP3 GT ISZERO PUSH2 0x348 JUMPI PUSH1 0x0 DUP2 SSTORE PUSH1 0x1 ADD PUSH2 0x34D JUMP JUMPDEST PUSH1 0x0 PUSH1 0x20 DUP3 DUP5 SUB SLT ISZERO PUSH2 0x373 JUMPI PUSH1 0x0 DUP1 REVERT JUMPDEST POP CALLDATALOAD SWAP2 SWAP1 POP JUMP JUMPDEST PUSH1 0x0 JUMPDEST DUP4 DUP2 LT ISZERO PUSH2 0x395 JUMPI DUP2 DUP2 ADD MLOAD DUP4 DUP3 ADD MSTORE PUSH1 0x20 ADD PUSH2 0x37D JUMP JUMPDEST DUP4 DUP2 GT ISZERO PUSH2 0x3A4 JUMPI PUSH1 0x0 DUP5 DUP5 ADD MSTORE JUMPDEST POP POP POP POP JUMP JUMPDEST PUSH1 0x60 DUP2 MSTORE PUSH1 0x0 DUP5 MLOAD DUP1 PUSH1 0x60 DUP5 ADD MSTORE PUSH2 0x3C9 DUP2 PUSH1 0x80 DUP6 ADD PUSH1 0x20 DUP10 ADD PUSH2 0x37A JUMP JUMPDEST PUSH1 0x20 DUP4 ADD SWAP5 SWAP1 SWAP5 MSTORE POP PUSH1 0x1 PUSH1 0x1 PUSH1 0xA0 SHL SUB SWAP2 SWAP1 SWAP2 AND PUSH1 0x40 DUP3 ADD MSTORE PUSH1 0x80 PUSH1 0x1F SWAP1 SWAP3 ADD PUSH1 0x1F NOT AND ADD ADD SWAP2 SWAP1 POP JUMP JUMPDEST PUSH4 0x4E487B71 PUSH1 0xE0 SHL PUSH1 0x0 MSTORE PUSH1 0x41 PUSH1 0x4 MSTORE PUSH1 0x24 PUSH1 0x0 REVERT JUMPDEST PUSH1 0x0 DUP3 PUSH1 0x1F DUP4 ADD SLT PUSH2 0x41C JUMPI PUSH1 0x0 DUP1 REVERT JUMPDEST DUP2 CALLDATALOAD PUSH8 0xFFFFFFFFFFFFFFFF DUP1 DUP3 GT ISZERO PUSH2 0x437 JUMPI PUSH2 0x437 PUSH2 0x3F5 JUMP JUMPDEST PUSH1 0x40 MLOAD PUSH1 0x1F DUP4 ADD PUSH1 0x1F NOT SWAP1 DUP2 AND PUSH1 0x3F ADD AND DUP2 ADD SWAP1 DUP3 DUP3 GT DUP2 DUP4 LT OR ISZERO PUSH2 0x45F JUMPI PUSH2 0x45F PUSH2 0x3F5 JUMP JUMPDEST DUP2 PUSH1 0x40 MSTORE DUP4 DUP2 MSTORE DUP7 PUSH1 0x20 DUP6 DUP9 ADD ADD GT ISZERO PUSH2 0x478 JUMPI PUSH1 0x0 DUP1 REVERT JUMPDEST DUP4 PUSH1 0x20 DUP8 ADD PUSH1 0x20 DUP4 ADD CALLDATACOPY PUSH1 0x0 PUSH1 0x20 DUP6 DUP4 ADD ADD MSTORE DUP1 SWAP5 POP POP POP POP POP SWAP3 SWAP2 POP POP JUMP JUMPDEST PUSH1 0x0 DUP1 PUSH1 0x0 PUSH1 0x60 DUP5 DUP7 SUB SLT ISZERO PUSH2 0x4AD JUMPI PUSH1 0x0 DUP1 REVERT JUMPDEST DUP4 CALLDATALOAD PUSH8 0xFFFFFFFFFFFFFFFF DUP2 GT ISZERO PUSH2 0x4C4 JUMPI PUSH1 0x0 DUP1 REVERT JUMPDEST PUSH2 0x4D0 DUP7 DUP3 DUP8 ADD PUSH2 0x40B JUMP JUMPDEST SWAP4 POP POP PUSH1 0x20 DUP5 ADD CALLDATALOAD SWAP2 POP PUSH1 0x40 DUP5 ADD CALLDATALOAD PUSH1 0x1 PUSH1 0x1 PUSH1 0xA0 SHL SUB DUP2 AND DUP2 EQ PUSH2 0x4F4 JUMPI PUSH1 0x0 DUP1 REVERT JUMPDEST DUP1 SWAP2 POP POP SWAP3 POP SWAP3 POP SWAP3 JUMP JUMPDEST PUSH1 0x0 PUSH1 0x20 DUP3 DUP5 SUB SLT ISZERO PUSH2 0x511 JUMPI PUSH1 0x0 DUP1 REVERT JUMPDEST DUP2 CALLDATALOAD PUSH8 0xFFFFFFFFFFFFFFFF DUP2 GT ISZERO PUSH2 0x528 JUMPI PUSH1 0x0 DUP1 REVERT JUMPDEST PUSH2 0x534 DUP5 DUP3 DUP6 ADD PUSH2 0x40B JUMP JUMPDEST SWAP5 SWAP4 POP POP POP POP JUMP JUMPDEST PUSH1 0x1 DUP2 DUP2 SHR SWAP1 DUP3 AND DUP1 PUSH2 0x550 JUMPI PUSH1 0x7F DUP3 AND SWAP2 POP JUMPDEST PUSH1 0x20 DUP3 LT DUP2 SUB PUSH2 0x570 JUMPI PUSH4 0x4E487B71 PUSH1 0xE0 SHL PUSH1 0x0 MSTORE PUSH1 0x22 PUSH1 0x4 MSTORE PUSH1 0x24 PUSH1 0x0 REVERT JUMPDEST POP SWAP2 SWAP1 POP JUMP JUMPDEST PUSH1 0x0 DUP3 MLOAD PUSH2 0x588 DUP2 DUP5 PUSH1 0x20 DUP8 ADD PUSH2 0x37A JUMP JUMPDEST SWAP2 SWAP1 SWAP2 ADD SWAP3 SWAP2 POP POP JUMP INVALID LOG2 PUSH5 0x6970667358 0x22 SLT KECCAK256 MUL 0xF BALANCE TIMESTAMP 0xC CODESIZE CODECOPY SWAP16 EXP 0xCE 0x5D 0xDB XOR SELFDESTRUCT CALLDATACOPY COINBASE PUSH2 0xF507 XOR SWAP7 0xB8 0xC4 0xAF PUSH31 0xD504AB6BBA423664736F6C634300080D003300000000000000000000000000 ","sha1":"dcfedcbebd0f03208f1e63c2b7b59153cad1c5e9","source":"// SPDX-License-Identifier: MIT\npragma solidity ^0.8.0;\n\ncontract SimpleStorage {\n    uint256 myNumber = 1024;\n    int256 myNegNumber = -1024;\n    bool myBool = true;\n    string myString = \"Hello, world.\";\n    address myAddress = 0x5B38Da6a701c568545dCfcB03FcB875f56beddC4;\n    bytes32 myBytes = \"eth\";\n\n    uint public storedData;\n    function updateStorage(uint _storedData) public {\n        storedData = _storedData;\n    }\n    function updateStorage_pri() private pure {\n        uint storedData_pri = 1024;\n    }\n    function retrieveStorage() public view returns(uint){\n        return storedData;\n    }\n    \n    struct Account {\n        string name;\n        uint amount;\n        address wallet;\n    }\n    Account public myaccount = Account({\n        name: \"vitalik\",\n        amount: 100,\n        wallet: 0x5B38Da6a701c568545dCfcB03FcB875f56beddC4\n    });\n\n    Account[] public asset;\n    mapping(string => uint) public name2amount;\n    function addAccount(string memory _name, uint _amount, address _wallet) public {\n        asset.push(Account(_name, _amount, _wallet));\n        name2amount[_name] = _amount;\n    }\n\n}\n","sourcePath":"contracts/SimpleStorage.sol","type":"contract","deployment":{"address":"0xA56a14862bb9219Dc406a9D33053c12e397e06F1","chainid":"1337","blockHeight":1}}